:100000000C9446000C9465000C9465000C946500FB
:100010000C9465000C9465000C9465000C946500CC
:100020000C9465000C9465000C9465000C946500BC
:100030000C9465000C9465000C9465000C946500AC
:100040000C9465000C9465000C9461010C942F01D4
:100050000C9465000C946A000C9465000C94650087
:100060000C9465000C9465000C9465000C9465007C
:100070000C9465000C9465000C94CD010C949A01CD
:100080000C9465000C9465000C94650011241FBE4F
:10009000CFEFD0E1DEBFCDBF11E0A0E0B1E0E0E105
:1000A000F4E000E00BBF02C007900D92A030B10752
:1000B000D9F721E0A0E0B1E001C01D92A33AB20758
:1000C000E1F70E9467000C9406020C94000080E0A7
:1000D00090E008951F920F920FB60F9211240BB665
:1000E0000F922F933F934F935F936F937F938F93D1
:1000F0009F93AF93BF93EF93FF930E94FB00FC018C
:10010000808191810E9404019093A2018093A101BA
:1001100020910001243080F4209100012F5F209372
:1001200000012091010130910201820F931F9093F1
:100130000201809301014CC0E0910301F0910401A0
:1001400080910101909102019595879595958795EC
:10015000EE0FFF1FEB5BFE4F918380831092020135
:1001600010920101109200012091030130910401CD
:1001700080919F019091A0012817390754F4809134
:10018000030190910401019690930401809303016F
:1001900004C010920401109203010E94FB00FC01B4
:1001A0009381907E93830E94FB00DC01E091030128
:1001B000F0910401EE0FFF1FEB5FFE4F20813181B4
:1001C0002F7113969C911397907E292B13962C9345
:1001D000FF91EF91BF91AF919F918F917F916F911F
:1001E0005F914F913F912F910F900BBE0F900FBEDB
:1001F0000F901F90189584E290E0089589E290E0B6
:10020000089588E990E00895292F30E0322F2227C1
:10021000A901482BCA010895483000F56623F1F082
:10022000262F30E0240F311D29303105BCF421E0A8
:1002300030E002C0220F331F6A95E2F7215030E010
:10024000042E02C0220F331F0A94E2F790E08223AB
:10025000932302C0959587954A95E2F708951F92DA
:100260000F920FB60F9211240BB60F922F933F935C
:100270004F935F936F937F938F939F93AF93BF93AE
:10028000EF93FF930E94FE00FC0191819F7D91837B
:10029000FF91EF91BF91AF919F918F917F916F915E
:1002A0005F914F913F912F910F900BBE0F900FBE1A
:1002B0000F901F9018958BB142E063E00E940C01F3
:1002C00008951F920F920FB60F9211240BB60F9242
:1002D0002F933F934F935F936F937F938F939F934E
:1002E000AF93BF93EF93FF930E945B010E94FE00C8
:1002F000FC0181810E94FE00FC0163816093850105
:10030000E0918C01F0918D0186E891E00995FF91D3
:10031000EF91BF91AF919F918F917F916F915F917D
:100320004F913F912F910F900BBE0F900FBE0F90EA
:100330001F9018951F920F920FB60F9211240BB6B3
:100340000F922F933F934F935F936F937F938F936E
:100350009F93AF93BF93EF93FF930E940101FC0122
:1003600092819F7D9283FF91EF91BF91AF919F9179
:100370008F917F916F915F914F913F912F910F904E
:100380000BBE0F900FBE0F901F90189580919B0091
:1003900042E063E00E940C0108951F920F920FB695
:1003A0000F9211240BB60F922F933F934F935F93AD
:1003B0006F937F938F939F93AF93BF93EF93FF932D
:1003C0000E94C6010E940101FC0182810E9401017C
:1003D000FC01648160939201E0919901F0919A018E
:1003E00083E991E00995FF91EF91BF91AF919F91C2
:1003F0008F917F916F915F914F913F912F910F90CE
:100400000BBE0F900FBE0F901F901895F894FFCF62
:00000001FF
