:100000000C9497000C94B4000C94B4000C94B400BD
:100010000C94B4000C94B4000C94B4000C94B40090
:100020000C94B4000C94B4000C94B4000C94B40080
:100030000C94B4000C9485160C94B4000C94B40089
:100040000C94B4000C94B4000C94B4000C94B40060
:100050000C94DF010C9469010C94B4000C94B4006E
:100060000C947F030C94B4000C94B4000C94B40072
:100070000C94B4000C94B4000C94B4000E05160556
:100080001E0526052E053C054A0558056005730525
:1000900081059405BC059C05AA05CE05D605DE059F
:1000A000E6050D06EE05F605FE0506060763423673
:1000B000B79BD8A71A39685618AEBAAB558C1D3CF9
:1000C000B7CC5763BD6DEDFD753EF6177231BF00BD
:1000D0000000803F08000000BE922449123EABAAF7
:1000E000AA2ABECDCCCC4C3E00000080BEABAAAA52
:1000F000AA3E00000000BF000000803F000000009A
:1001000000084178D3BB4387D1133D190E3CC3BDD2
:100110004282AD2B3E68EC8276BED98FE1A93E4C7F
:1001200080EFFFBE01C4FF7F3F00000000001124EC
:100130001FBECFEFD8E0DEBFCDBF11E0A0E0B1E041
:10014000E6E2FDE302C005900D92A833B107D9F7AE
:1001500022E0A8E3B1E001C01D92A435B207E1F7A7
:100160000E94A2110C94911E0C9400009B01AC0102
:1001700060E271EA87E090E00E94A11ADA01C90109
:100180000197A109B10908959B01AC0160E472E4F3
:100190008FE090E00E94A11ADA01C9010197A1093C
:1001A000B1090895483000F56623F1F0262F30E0BC
:1001B000240F311D29303105BCF421E030E002C0AC
:1001C000220F331F6A95E2F7215030E0042E02C05F
:1001D000220F331F0A94E2F790E08223932302C098
:1001E000959587954A95E2F70895FC01483040F5CA
:1001F000662331F1862F90E0840F911D099704F555
:1002000081E090E002C0880F991F6A95E2F79FEFA6
:10021000980F8081692F70E0042E02C0660F771F4F
:100220000A94E2F760956823608380819223292FE6
:1002300030E002C0220F331F4A95E2F7282B2083BB
:10024000089580915901109259010895E091620139
:10025000F09163018AE591E009950895E0916401C8
:10026000F09165018AE591E009950895E6E6F1E0EF
:10027000A481B5819C9190629C930284F385E02DCA
:1002800080838091C00085FD09C088E592E0E0ECA4
:10029000F0E0208125FD02C00197D9F708950E9462
:1002A00036010895CF93DF93EC018881882331F0E4
:1002B00021960E94360189918111FBCFDF91CF9168
:1002C00008958091590110925901089586E691E0B0
:1002D00008951F920F920FB60F9211248F93EF93F0
:1002E000FF93E0916A01F0916B0180818F7D8083A3
:1002F000FF91EF918F910F900FBE0F901F90189567
:100300009F92AF92BF92CF92DF92EF92FF920F93A4
:100310001F93CF93DF938C016B015A017901E9019F
:1003200009900020E9F72197C21BD30B9C2E8091E6
:100330003801882351F0DB011C9210923801D8015A
:100340005296ED91FC9153970995D8015096ED91F5
:10035000FC91519709958C01FC0101900020E9F76F
:100360003197E81BF90BE915B0F0FF27CF018C1B83
:100370009109B701800F911F0E94161B892B59F418
:10038000B801C6010E941F1BB801C5010E941F1BB6
:100390008FEF80933801C801DF91CF911F910F91AA
:1003A000FF90EF90DF90CF90BF90AF909F90089517
:1003B0008091C00042E063E00E94D20008951F9245
:1003C0000F920FB60F9211242F933F934F935F9389
:1003D0006F937F938F939F93AF93BF93EF93FF930D
:1003E0000E94D801E6E6F1E0A481B5818C910284F7
:1003F000F385E02D608160935901E0916001F091F7
:1004000061018AE591E00995FF91EF91BF91AF916C
:100410009F918F917F916F915F914F913F912F911C
:100420000F900FBE0F901F90189521E041E064E0FF
:1004300080EC90E00E94F50008954F925F926F92D9
:100440007F92AF92BF92CF92DF92EF92FF920F9383
:100450001F93CF93DF93CDB7DEB72C970FB6F894E9
:10046000DEBF0FBECDBF5C012A013B01690181E007
:100470008093380149E351E06FE1CE0101960E947B
:10048000A4068CE0FE013196AAE5B1E001900D9240
:100490008A95E1F7C301B2010E94B600E6E6F1E0F9
:1004A0002FE530E03183208320EC30E0338322835A
:1004B00021EC30E03583248322EC30E0378326833F
:1004C00024EC30E03187208726EC30E03387228728
:1004D00021E231E03587248721E631E0378726871E
:1004E00026E231E0318B208B2EE231E0338B228B00
:1004F00026E331E0358B248B2FE431E0378B268BDC
:1005000022E531E0318F208F992334F40E941502C7
:10051000C301B2010E94C400E6E6F1E0A085B18506
:1005200011969C938E930480F581E02D88E9808359
:1005300087E0C816D10481F150F485E0C816D104D3
:1005400009F450C086E0C816D104C9F159C088E04A
:10055000C816D10499F089E0C816D10409F050C03A
:10056000E6E6F1E0A481B5818C9184608C930680ED
:10057000F781E02D8081866080834FC0E6E6F1E060
:10058000A481B5818C918B7F8C930680F781E02DBF
:1005900080818660808341C0E6E6F1E0A481B58178
:1005A0008C918B7F8C93A681B7818C9184608C9386
:1005B0000680F781E02D80818D7F80832EC0E6E666
:1005C000F1E0A481B5818C918B7F8C93A681B7815A
:1005D0008C918B7F8C930680F781E02D80818260E7
:1005E00080831BC0E6E6F1E0A481B5818C918B7F0E
:1005F0008C930680F781E02D8081897F80830DC0F8
:10060000E6E6F1E0A481B5818C918B7F8C93068026
:10061000F781E02D8081866080830130110521F013
:100620000230110549F010C0E0916C01F0916D01AC
:100630008081877F80830FC0E0916C01F0916D0114
:1006400080818860808307C0E0916C01F0916D012A
:100650008081877F808382E0E816F10471F083E077
:10066000E816F104C1F0EF28F1F4E0916C01F0918B
:100670006D0180818F7C80831DC0E6E6F1E0A6815C
:10068000B7818C9180628C930680F781E02D808108
:100690008F7E80830FC0E0916C01F0916D018081AD
:1006A0008063808307C0E0916C01F0916D018081CF
:1006B0008F7C8083E0916601F09167018081806882
:1006C00080838AE1E6E6F1E0D50101900D928A95FA
:1006D000E1F7C5012C960FB6F894DEBF0FBECDBF73
:1006E000DF91CF911F910F91FF90EF90DF90CF900E
:1006F000BF90AF907F906F905F904F9008951F9242
:100700000F920FB60F9211242F933F938F939F93C5
:10071000AF93BF93EF93FF938091780090E0909315
:1007200029028093280220917900809128029091DB
:100730002902922B9093290280932802809127020C
:100740008430A0F4809127028F5F8093270220914C
:100750002802309129028091230290912402820F75
:10076000931F909324028093230245C0E0912102BD
:10077000F091220280912302909124029595879511
:1007800095958795EE0FFF1FE057FE4F918380836D
:10079000109224021092230210922702209121022B
:1007A0003091220280912502909126022817390764
:1007B00054F480912102909122020196909322029A
:1007C0008093210204C01092220210922102ACE711
:1007D000B0E08C91807E8C93E0912102F091220216
:1007E000EE0FFF1FE058FE4F808191812C918F7199
:1007F0009927822B8C93FF91EF91BF91AF919F919D
:100800008F913F912F910F900FBE0F901F901895D1
:100810002091A00121113EC0E091AD01F091AE0107
:100820001182108288309105B1F048F4833091052F
:10083000D1F085309105C9F00197C9F41AC081152E
:1008400021E0920761F0811524E0920751F0803495
:10085000910569F402C092E00DC093E00BC094E0F2
:1008600009C095E007C096E005C097E003C095E099
:1008700001C091E0E1EAF1E0A085B1858C91892B7E
:100880008C930190F081E02D80818068808381E0ED
:100890008093A0010895E091A701F091A8019081B3
:1008A0009F739083823061F0833091F08130B9F48E
:1008B000E091A701F091A801808180648083089570
:1008C000E091A701F091A80180818068808308955C
:1008D000E091A701F091A8018081806C8083089548
:1008E000E091A701F091A80190819F7C90838230D4
:1008F00061F0833091F08130B9F4E091A701F0917B
:10090000A8018081806180830895E091A701F09122
:10091000A8018081806280830895E091A701F09111
:10092000A8018081806380830895E091B101F091F6
:10093000B201918380830895E091B301F091B401F5
:10094000918380830895E091A901F091AA018081AB
:10095000887F80831092A0010895FF920F931F93C8
:10096000CF93DF93F62E1092A001A1EAB1E02FE51C
:1009700030E011963C932E9326E330E013963C939F
:100980002E9312972FE630E015963C932E931497F2
:10099000E0E8F0E01796FC93EE931697C1E8D0E0FC
:1009A0001996DC93CE93189762E870E01B967C93BF
:1009B0006E931A9764E870E01D967C936E931C9773
:1009C00066E870E01F967C936E931E9708E810E02F
:1009D00051961C930E9350976AE870E053967C935F
:1009E0006E9352972FEF3FEFD80111963C932E93C1
:1009F000DB0111963C932E9350815C7F50832881BC
:100A0000277E28830F2D10E0F8013197EF30F10594
:100A100008F0B2C0E25CFF4F0C94E21AE091A7012B
:100A2000F091A801208121602083A6C0E091A70158
:100A3000F091A8012081226020839EC0E091A7014F
:100A4000F091A80120812360208396C0E091A90144
:100A5000F091AA012081286020838EC0E1EAF1E0B4
:100A6000A681B7812C9121602C930084F185E02D23
:100A700020812860208380C0E1EAF1E0A681B7816F
:100A80002C9122602C930084F185E02D2081286038
:100A9000208372C0E1EAF1E0A681B7812C91236046
:100AA0002C930084F185E02D20812860208364C090
:100AB000E091A901F091AA012081206120835CC00E
:100AC000E1EAF1E0A285B3852C912F732C93A681E6
:100AD000B7812C9121602C930084F185E02D208139
:100AE0002061208349C0E1EAF1E0A681B7812C9121
:100AF00022602C930084F185E02D208120612083E9
:100B00003BC0E1EAF1E0A285B3852C912F732C93D1
:100B1000A681B7812C9123602C930084F185E02D70
:100B200020812061208328C0E091A901F091AA01D1
:100B300020812861208320C0E1EAF1E0A681B7810D
:100B40002C9122602C930084F185E02D2081286176
:100B5000208312C0E1EAF1E0A285B3852C912F73C6
:100B60002C93A681B7812C9123602C930084F1856E
:100B7000E02D208128612083E091A501F091A6015C
:100B80002081287D208350E0FA013197E930F1057A
:100B900008F043C0E35BFF4F0C94E21AE091A5011B
:100BA000F091A60120812160208337C0E091A5014A
:100BB000F091A6012081246020832FC0E091A5013F
:100BC000F091A60120812260208327C0E091A50139
:100BD000F091A6012081206220831FC0E091A50131
:100BE000F091A60120812560208317C0E091A50126
:100BF000F091A6012081236020830FC0E091A50120
:100C0000F091A60120812660208307C0E091A50114
:100C1000F091A601208127602083E1EAF1E02BE436
:100C200034E0358B248B20E734E0378B268B25E9A5
:100C300034E0318F208F2CE934E0338F228F28E08D
:100C400034E0358F248F23EA34E0378F268F20E27B
:100C5000DC0101900D922A95E1F7DF91CF911F9170
:100C60000F91FF90089581EA91E00895E1ECF1E0A1
:100C70002FE330E03183208320E430E0338322838C
:100C800021E430E03583248323EF3DE1378326835D
:100C90002FE33EE13187208721E13EE13387228740
:100CA0002BEF3DE13587248725E53EE13787268711
:100CB0002FE23EE1318B208B2DE43EE1358B248BFE
:100CC0002DE43EE1338F228F23E23EE1358F248FE6
:100CD00023EE3DE1378F268F25E33EE131A320A3AC
:100CE00021E03EE133A322A324E2DC0101900D9236
:100CF0002A95E1F708956623C1F0DC011296ED9183
:100D0000FC91139714962D913C911597E217F307D8
:100D100029F4ED91FC91DF01119602C0DF011196DB
:100D200060831C92FC01B383A2830895FC0180813F
:100D300091810895DC01ED91FC9111971396FC933C
:100D4000EE93129710820895FC01518340835383E0
:100D50004283460F511D558344838BE796E097836A
:100D6000868386E996E0918780878AE996E0938773
:100D70008287CF01089521E030E0042E02C0220FC7
:100D8000331F0A94E2F7215031096223732382232F
:100D900093239C012627372762237323CB0102C0AC
:100DA000880F991F4A95E2F7822B932B0895CF92D3
:100DB000DF92EF92FF920F931F93FC01008111814C
:100DC00022813381FB01C080D180E280F380FC016D
:100DD000C082D182E282F382FB01008311832283ED
:100DE00033831F910F91FF90EF90DF90CF90089584
:100DF000FB012081FC012083222339F0DB011196C5
:100E000031969D9191939111FCCF0895CF93DF93EB
:100E1000EC019881992399F0FE01319620E030E0B1
:100E2000492F50E04617570731F0DE01A20FB31FDC
:100E30009C932F5F3F4F91919111F2CF02C020E020
:100E400030E0FE01E20FF31F1082DF91CF91089591
:100E50002F923F924F925F926F927F928F929F92CA
:100E6000AF92BF92CF92DF92EF92FF920F931F93B8
:100E7000CF93DF9300D000D0CDB7DEB72C011B019C
:100E80004B0177231CF42FEF821A920A95948794D2
:100E9000181419040CF451C06AC09601DD209CF1AD
:100EA000F50140815181F4016081718164177507FA
:100EB00054F58C010A0D1B1DD401BC82AB82BA8291
:100EC000A982EB81FC817183608311965C934E93C0
:100ED0002E193F09C2F0F80140815181E981FA8160
:100EE00060817181080F191FE80FF91FFA83E983E8
:100EF000EB81FC81E80FF91FFC83EB83A80FB91F7E
:100F000064177507F4F2FFEFCF1ADF0A22E0A20E92
:100F1000B11CE2E08E0E911CC614D70409F0BDCFBF
:100F20004701FF201CF4FFEF8F1A9F0A95948794C6
:100F300018141904E4F4740101C0740182149304B8
:100F40007CF76401CE18DF085601AA0CBB1CA40C68
:100F5000B51C880C991C840C951C31016E187F08F7
:100F6000C701880F991F91958195910996CF0F9090
:100F70000F900F900F90DF91CF911F910F91FF90E5
:100F8000EF90DF90CF90BF90AF909F908F907F9029
:100F90006F905F904F903F902F900895861797071E
:100FA0000CF4CB0108959B01672B11F408959A016D
:100FB000B9010E948D1AAC01822F932F4115510562
:100FC000B1F70895FC01908180ED890F8A30D0F44B
:100FD000319620E030E0A901440F551F220F331F46
:100FE000220F331F220F331F420F531F292F30E0D0
:100FF00020533109240F351F919180ED890F8A30DC
:1010000050F302C020E030E0C901089587FF08C016
:1010100091958195910999279195819591090895C7
:101020008F779927089591FF08C09195819591092F
:1010300093709195819591090895917008956150EB
:1010400021E030E002C0220F331F6A95E2F7A901C8
:1010500041505109B90168237923672B29F0842372
:101060009523821B930B08958423952308959DEC6B
:10107000899F912D1124969596959695392F330F2A
:10108000232F220F220F230F821B20E1929F800D1E
:1010900011240895982F92959F70990F292F220F50
:1010A000220F920F8F70890F0895FC01DB01AB5165
:1010B000BE4F1C921616170614F5908191110CC0A4
:1010C00017C0919191110DC015C081932F5F3F4FB3
:1010D00026173707D4F313C0A5EEB1E0319620E010
:1010E00030E09D932F5F3F4F6217730751F707C0A2
:1010F00020E030E0F901EB51FE4F80E2E6CF85EED3
:1011000091E008954F925F926F927F92AF92BF925B
:10111000CF92DF92EF92FF920F931F93CF93DF93C3
:10112000CDB7DEB729013A019B01AC01241935097D
:101130004609570989899A89AB89BC89BC01CD01C7
:101140006A197B098C099D090E947D1AA8019701E3
:1011500024193509460957090E94C31ACA01B90161
:101160006A0D7B1D8C1D9D1DDF91CF911F910F91ED
:10117000FF90EF90DF90CF90BF90AF907F906F90F7
:101180005F904F900895FC012081222341F0319619
:1011900080E090E0019621912111FCCF089580E03C
:1011A00090E00895CF93DF93EC010E94C3089C0167
:1011B0002150310962F0FE01E80FF91F929190323F
:1011C00019F09950923018F421503109B8F7C20F34
:1011D000D31F1982C901DF91CF910895CF93DF9377
:1011E000EC010E94C3089C0121503109121613061C
:1011F00084F4DE01A80FB91FFE0180E090E0408179
:101200005E9151934C9301962150310982179307B7
:10121000B4F3DF91CF910895CF92DF92EF92FF92D6
:101220001F93CF93DF93C0E00F2EFAE0CF2ED12C87
:10123000E12CF12CF02D11E01C0FD0E0CB51DE4F52
:10124000A70196010E94A11A605D6883622F732F27
:10125000842F952FC12F611571058105910559F7CF
:10126000E12FF0E0EB51FE4F108285EE91E00E94FD
:10127000EE0885EE91E0DF91CF911F91FF90EF9006
:10128000DF90CF9008958F929F92AF92BF92CF92AE
:10129000DF92EF92FF920F931F93CF93DF936B0137
:1012A0007C01DC01CB01FF203CF488279927DC017D
:1012B0008C199D09AE09BF09BC01CD0110E00F2EAC
:1012C000FAE08F2E912CA12CB12CF02D01C0102F03
:1012D00001E0010FC12FD0E0CB51DE4FA5019401F9
:1012E0000E94C31A605D6883622F732F842F952F2D
:1012F000161617061806190654F3FF2044F4E02FBB
:10130000F0E0EB51FE4F8DE2808302E0010FE02F11
:10131000F0E0EB51FE4F108285EE91E00E94EE0866
:1013200085EE91E0DF91CF911F910F91FF90EF90AB
:10133000DF90CF90BF90AF909F908F9008950F93C4
:101340001F93CF93DF93EC01992324F488279927E7
:101350008C1B9D0B20E00AE010E001C0232F31E040
:10136000320FE22FF0E0EB51FE4FB8010E948D1AD0
:10137000805D8083862F972F181619067CF3DD2356
:1013800044F4E32FF0E0EB51FE4F8DE2808332E036
:10139000320FE32FF0E0EB51FE4F108285EE91E02B
:1013A0000E94EE0885EE91E0DF91CF911F910F91A1
:1013B0000895CF93AC019C01ADECBCEC0E94E81AFF
:1013C0009695879596958795969587959C01220F7A
:1013D000331F880F991F880F991F880F991F820F3D
:1013E000931F9A01281B390BC901805D8093E50189
:1013F0009A010E94E81AAC01569547955695479573
:10140000569547954115510589F1E1E0C1E0CE0FB0
:10141000F0E0EB51FE4F9A01ADECBCEC0E94E81AF3
:101420009695879596958795969587959C01220F19
:10143000331F880F991F880F991F880F991F820FDC
:10144000931F9A01281B390BC901805D80839A0183
:101450000E94E81AAC0156954795569547955695C2
:101460004795EC2F4115510589F601C0C1E0EC2FDD
:10147000F0E0EB51FE4F108285EE91E00E94EE0805
:1014800085EE91E0CF910895982F92959F70990FD6
:10149000292F220F220F920F8F70890F0895AC0110
:1014A0009C01ADECBCEC0E94E81A96958795969548
:1014B000879596958795BC01660F771F9C01220F33
:1014C000331F220F331F220F331F260F371F421BDC
:1014D000530B342F20E1829F300D1124832F089568
:1014E000CF92DF92EF92FF92CF93DF93CDB7DEB72B
:1014F00028970FB6F894DEBF0FBECDBF6B017C01FD
:1015000069837A838B839C832D833E834F835887A3
:10151000C216D306E406F5063CF4BE016B5F7F4FAE
:10152000CE0101960E94D7068D819E81AF81B8853C
:10153000892B8A2B8B2B71F469817A818B819C8119
:1015400020E030E0A9010E94C31A611571058105F0
:10155000910529F46D817E818F81988505C06D8309
:101560007E838F839887F6CF28960FB6F894DEBFD8
:101570000FBECDBFDF91CF91FF90EF90DF90CF9066
:1015800008959C012150310981E090E002C0880F4C
:10159000991F2A95E2F70097B1F0E5EEF1E020E01F
:1015A00030E0B0E3A1E3AB0148235923452B11F010
:1015B000A08301C0B083969587952F5F3F4F3196EA
:1015C000009789F702C020E030E0F901EB51FE4FAF
:1015D000108285EE91E00895AB01BC011092E50107
:1015E000411551056105710509F442C021E0EFEF95
:1015F000E20FDB01CA018F709927AA27B078BB23BD
:1016000054F40197A109B109806F9F6FAF6FBF6F4D
:101610000196A11DB11D8A309105A105B10534F4D3
:10162000F0E0EB51FE4F805D808305C0F0E0EB51B0
:10163000FE4F895C8083E22FF0E0EB51FE4F108279
:10164000DB01CA0177231CF40F96A11DB11DAC016B
:10165000BD01689413F8759567955795479516944D
:10166000D1F72F5F411551056105710509F0BFCF15
:1016700085EE91E00E94EE0885EE91E008959827AE
:10168000892798270895FB012081222339F0A82F6C
:10169000B92F31962D9321912111FCCF0895CF932D
:1016A000DF93CDB7DEB79E012B5F3F4FF90141912C
:1016B00051919F016FE170E085EE91E00E94261B41
:1016C00099231CF085EE91E002C080E090E0DF916C
:1016D000CF910895FC011092040283EC98E091836D
:1016E00080838EEE98E0938382838BEB96E09583E4
:1016F000848387ED96E09783868388EF96E09187D1
:10170000808786E097E09387828788E297E09587D5
:1017100084878FE999E09787868789ED99E0918B97
:10172000808B83E499E0938B828B8CE099E0958B9E
:10173000848B82ED98E0978B868B8EEC97E0918F6F
:10174000808F83ED97E0938F828F82EE97E0958F65
:10175000848F86E098E0978F868F83E198E091A34D
:1017600080A38FE198E093A382A387E398E095A3F9
:1017700084A38AE498E097A386A385E598E091A7DF
:1017800080A782E898E093A782A784E49AE095A7CF
:1017900084A78FE49AE097A786A780E79AE091ABA9
:1017A00080AB81EC9AE093AB82AB88E39CE095AB95
:1017B00084AB8CEE9AE097AB86AB8FE39BE091AF66
:1017C00080AF8FE49BE093AF82AF83E49BE095AF63
:1017D00084AFCF010895CF92DF92EF92FF920F93E3
:1017E0001F93CF93DF93C1E0C40F042F10E00B5180
:1017F0001E4F2AE030E040E050E00E94A11A605DF8
:10180000F8016083622F732F842F952F6115710566
:1018100081059105E9F00F2EFAE0CF2ED12CE12CB5
:10182000F12CF02D11E01C0FD0E0CB51DE4FA701C1
:1018300096010E94A11A605D6883622F732F842F26
:10184000952FC12F611571058105910559F701C0CB
:101850001C2FE12FF0E0EB51FE4F1082812FDF9122
:10186000CF911F910F91FF90EF90DF90CF9008954F
:101870008F929F92AF92BF92CF92DF92EF92FF92A0
:101880000F931F93CF93DF936B017C01D42F20E044
:1018900030E0A9010E943317882314F5F7FAF09479
:1018A000F7F8F094C701B6010E9438174B015C01AC
:1018B0000E9467179B01AC01C701B6010E94C616C2
:1018C0006B017C0140E0C501B4010E94EB0BC1E05B
:1018D000C80FE82FF0E0EB51FE4F8DE2808316C079
:1018E000C701B6010E9438174B015C010E946717BF
:1018F0009B01AC01C701B6010E94C6166B017C01B9
:1019000040E0C501B4010E94EB0BC82F0C2F10E082
:101910000B511E4FF801108285EE91E00E94EE08F7
:10192000CF5F8EE2F80180836D2F70E080E090E061
:101930000E9467179B01AC0160E070E080E291E4D7
:101940000E948618A70196010E9419180E94381754
:101950004C2F0E94EB0B8C2F90E08B519E4F0E94DE
:10196000EE0885EE91E0DF91CF911F910F91FF90EE
:10197000EF90DF90CF90BF90AF909F908F900895A1
:10198000CF93DF9300D000D01F92CDB7DEB785E0B4
:10199000E8E3F2E0DE01119601900D928A95E1F7FD
:1019A00029813A814B815C816D8170E080E090E01B
:1019B0000F900F900F900F900F90DF91CF9108959F
:1019C00010923502E8E3F2E080E2808385E092E065
:1019D00092838183948383830895CF93DF9321E05F
:1019E00080E0ADE2B2E0E1E3F2E060E071E001C08E
:1019F0002F5F9FEF920F913009F44BC038F0923077
:101A000009F48CC0933009F4CEC00EC140913D0260
:101A100050913E02EA0198819068988340912A0291
:101A200050912B02EA0198819F779883409136026A
:101A300050913702EA01388134773C939081432FEB
:101A4000492794233083992399F0943019F4EB01BA
:101A500088810AC0903119F4EB01898109C0903264
:101A600019F4EB018A8104C0903411F4EB018B81ED
:101A700040913D0250913E02EA0198819F77988300
:101A800040912A0250912B02EA0198819068988334
:101A9000AFCF40913D0250913E02EA0198819160A2
:101AA000988340912A0250912B02EA0198819E7FEF
:101AB00098834091360250913702EA013881347799
:101AC00011963C9311979181432F49279423318399
:101AD000992399F0943019F4EB018C810AC090316C
:101AE00019F4EB018D8109C0903219F4EB018E815C
:101AF00004C0903411F4EB018F8140913D0250916C
:101B00003E02EA0198819E7F988340912A0250917B
:101B10002B02EA019881916098836ACF40913D023F
:101B200050913E02EA0198819260988340912A0286
:101B300050912B02EA0198819D7F98834091360253
:101B400050913702EA013881347712963C9312970C
:101B50009281432F492794233283992399F094301B
:101B600019F4EB0188850AC0903119F4EB018985DD
:101B700009C0903219F4EB018A8504C0903411F445
:101B8000EB018B8540913D0250913E02EA01988124
:101B90009D7F988340912A0250912B02EA019881FF
:101BA0009260988325CFE0913D02F0913E029081B2
:101BB00098609083E0912A02F0912B029081977FA8
:101BC0009083E0913602F0913702208124772093B0
:101BD0003002E1E3F2E09381322F3927932323830C
:101BE000992399F0943019F480910C010AC0903136
:101BF00019F480910D0109C0903219F480910E0101
:101C000004C0903411F480910F01E0913D02F091F5
:101C10003E029081977F9083E0912A02F0912B02FF
:101C200090819860908303C0243008F4E1CEDF9166
:101C3000CF9108950E94ED0C882309F445C080934C
:101C40003802843499F4E0913502F0E0E15CFD4F14
:101C5000108210923502E8E3F2E085E092E0928390
:101C600081838FE392E0948383830895E09135022A
:101C7000E630B8F4AE2FB0E0A15CBD4F8C93EF5FBF
:101C8000E0933502F0E0E15CFD4F1082E8E3F2E022
:101C90008FE392E09283818385E092E09483838353
:101CA0000895EFE3F2E0808381E0809335021182B2
:101CB000A8E3B2E01296FC93EE93119785E092E0D0
:101CC00014969C938E9313970895CF93DF93CDB77B
:101CD000DEB728970FB6F894DEBF0FBECDBF20E267
:101CE0002093380290933E0280933D027093370216
:101CF0006093360250932B0240932A022BE8FC019A
:101D00002083E0912A02F0912B0284E78083ADE2E8
:101D1000B2E08C93E1E3F2E0808311968C9311970B
:101D2000818312968C931297828313968C9383836C
:101D300010923502E0912A02F0912B0280818B688B
:101D400080832DEE3CE03A8329834AE15EE05C83A8
:101D50004B8360EC7CE07E836D8380EE9CE0988713
:101D60008F833A815C817E81988528960FB6F8949E
:101D7000DEBF0FBECDBFDF91CF9108959C01E091F2
:101D80004D02F0914E0280818F708083E09150026D
:101D9000F09151029081906F9083E0915002F09108
:101DA00051029081926090832115310541F0E091BC
:101DB0005002F091510280818160808307C0E091E0
:101DC0005002F091510280818E7F8083E091500219
:101DD000F0915102908194609083E0914602F091DD
:101DE00047028081882314F080E001C080E8908160
:101DF00096FF02C0806401C08F7B908195FF02C076
:101E0000806201C08F7D908194FF02C0806101C01B
:101E10008F7EE0915002F091510290819B7F9083E0
:101E2000232B41F0E0915002F0915102908191609A
:101E3000908307C0E0915002F091510290819E7F03
:101E40009083E0915002F0915102908194609083D0
:101E5000E0914602F09147029081992314F4886042
:101E600001C0877F908196FF02C0846001C08B7F94
:101E7000908195FF02C0826001C08D7F908194FFA8
:101E800002C0816001C08E7FE0915002F09151024A
:101E900090819B7F90830895CF9380E090E00E9493
:101EA000BE0ECBE006C080E090E00E94BE0EC150A6
:101EB00011F08823C4F3CF910895CF9381E090E08F
:101EC0000E94BE0EC82F0E944C0F8C2FCF910895F8
:101ED000E0915002F091510290819D7F9083E091BA
:101EE0004D02F0914E029081906F908361157105C3
:101EF00041F0E0915002F091510290819160908305
:101F000007C0E0915002F091510290819E7F908332
:101F1000E0915002F0915102908194609083882367
:101F200044F4E0915002F0915102908190689083C6
:101F300007C0E0915002F091510290819F77908309
:101F400086FF08C0E0915002F091510290819064A8
:101F5000908307C0E0915002F091510290819F7BE5
:101F6000908385FF08C0E0915002F091510290816A
:101F70009062908307C0E0915002F09151029081ED
:101F80009F7D908384FF08C0E0915002F091510240
:101F900090819061908307C0E0915002F0915102CE
:101FA00090819F7E9083E0915002F0915102908148
:101FB0009B7F9083672BB1F0E0915002F09151022A
:101FC000908191609083E0915002F0915102908154
:101FD00094609083E0915002F09151029081916061
:101FE000908315C0E0915002F091510290819E7F44
:101FF0009083E0915002F09151029081946090831F
:10200000E0915002F091510290819E7F908383FF76
:1020100008C0E0915002F091510290819068908345
:1020200007C0E0915002F091510290819F77908318
:1020300082FF08C0E0915002F091510290819064BB
:10204000908307C0E0915002F091510290819F7BF4
:10205000908381FF08C0E0915002F091510290817D
:102060009062908307C0E0915002F09151029081FC
:102070009F7D908380FF08C0E0915002F091510253
:1020800080818061808307C0E0915002F09151020D
:1020900080818F7E8083E0915002F0915102808197
:1020A0008B7F8083089560E070E081E00E94680F7C
:1020B00087EE97E10197F1F700C00000089561E015
:1020C00070E00E94680F0E944C0F0895CF93DF9339
:1020D000EC018881882331F021960E945F1089915C
:1020E0008111FBCFDF91CF9108950F931F93CF9371
:1020F000DF93FC01D62F8081882351F08F010F5F81
:102100001F4F611109C017C0CF5FDC1730F401C049
:10211000C0E0CD1750F00FC0C1E00E945F10F80181
:1021200081918F018111F0CFF4CF80E20E945F1086
:10213000CF5FCD17D0F3DF91CF911F910F9108950D
:10214000CF93C82F882329F080E20E945F10C150EE
:10215000D9F7CF910895262F8130910581F030F085
:1021600082309105A9F00397E1F0089560E070E0F6
:1021700080E8820F0E94680F0E944C0F089560E073
:1021800070E080EC820F0E94680F0E944C0F08954F
:1021900060E070E084E9820F0E94680F0E944C0F9B
:1021A000089560E070E084ED820F0E94680F0E9445
:1021B0004C0F089587E092E00895E0914D02F09170
:1021C0004E0287E08083E0915002F091510288E056
:1021D00080832FEF83EF91E0215080409040E1F722
:1021E00000C0000060E070E080E30E94680F25EC12
:1021F0002A95F1F7000060E070E088E20E94680F25
:1022000085EC8A95F1F7000060E070E088E20E94BA
:10221000680F95EC9A95F1F7000060E070E08CE0B3
:102220000E94680F25EC2A95F1F7000060E070E04D
:1022300081E00E94680F8FE39FE10197F1F700C0F2
:10224000000060E070E084E00E94680F0E944C0F84
:102250000E94531060E070E080E090E00E94AB10BC
:102260000895CF93DF93EC0170934E0260934D027B
:1022700050934702409346023093510220935002FC
:10228000FB011082E0915002F09151028FEF8083A8
:10229000E0914602F09147028081887080934F025E
:1022A000E7E0F2E088E69FE0918380838EEB9EE09A
:1022B000938382838CE49FE0958384838FE590E110
:1022C000978386838DE59FE09187808786E690E1FE
:1022D0009387828785E790E19587848780EA90E1FC
:1022E0009787868783E590E1918B808B8BEA90E1DD
:1022F000938B828B8CE891E1958B848B0E94DD100F
:1023000086E1E7E0F2E0DE0101900D928A95E1F7C7
:10231000CE01DF91CF910895CF93E0914602F091E5
:102320004702C081C87080914F028C278C2311F026
:102330000E94DD10C0934F02CF91089580E38AB9C7
:102340008BB90895CF93DF93CDB7DEB7CF50D1408F
:102350000FB6F894DEBF0FBECDBF0E949E1143E0C2
:1023600064E0CE0101960E94AD042D893E89C25FD2
:10237000DE4F39832883CE50D140898D9A8DCB5F33
:10238000DE4F99838883C550D140AD8DBE8DC65F29
:10239000DE4FB983A883CA50D140EF8DF8A1C45F46
:1023A000DE4FF983E883CC50D14042E250E060E256
:1023B00070E081E290E00E94650E29A33AA34BA34E
:1023C0005CA36DA37EA38FA398A728E230E046E22A
:1023D00050E067E270E0CE0189960E943111CDA4F1
:1023E000DEA42BA93CA9C350DF4F39832883CD5FDE
:1023F000D040ADA8BEA88FA898AC4BAC5CACCE01C9
:10240000CF960E946A0B63966EAC7FAC6397CE0149
:1024100083589F4F0E943606C757DF4F2880398068
:10242000C958D040C357DF4F88819981CD58D040DB
:10243000CD5FDE4F99838883C350D140E12CF12CCE
:1024400001E010E028E030E040E056E960E070E0B4
:10245000CE018F519F4F0E941D020E943306DC0166
:102460001C96ED91FC911D9787E3818360E070E0FD
:1024700080E090E0F20109956CE084E191E0F501E3
:102480000995F601099580E090E0F10109958C012C
:1024900084E090E0F1010995C150DF4F9983888372
:1024A000CF5FD04088E090E0F1010995C95FDE4F31
:1024B00099838883C750D140909313018093120170
:1024C0008CE090E0F10109951C019093110180933B
:1024D0001001C150DF4F28813981CF5FD0402830B3
:1024E0003105C9F020F42130310571F029C0C15007
:1024F000DF4F88819981CF5FD0408034910591F082
:1025000081159140B1F01CC0B1E0C75FDE4FB883C8
:10251000C950D1401AC0E2E0C75FDE4FE883C9501E
:10252000D14013C0F3E0C75FDE4FF883C950D140FC
:102530000CC024E0C75FDE4F2883C950D14005C0DE
:10254000C75FDE4F1882C950D14081E0C25FDE4FC5
:10255000E881F981CE50D1400995C801CB5FDE4FAB
:10256000E881F981C550D1400995C150DF4F88817C
:102570009981CF5FD040C65FDE4FE881F981CA50B4
:10258000D1400995FE01EF55FF4F80E2DF01282F72
:102590001D922A95E9F7B096DF011D928A95E9F719
:1025A000CF5FDE4F19830883C150D140EE24E394FE
:1025B00060E070E080E090E0F2010995E9A1FAA105
:1025C0000995F82E0E9466012EE131E0AE014F53CD
:1025D0005F4FBE016F557F4F0E94800190931E0296
:1025E00080931D020E94DA10DC011C96ED91FC9193
:1025F0001D9764E1CE018F539F4F0995FF2009F489
:1026000009C3F601099560E070E081E090E0F20115
:10261000099580E291E0C350DF4FE881F981CD5FF9
:10262000D0400995EFA5F8A98F2D099583E0F40115
:102630000995F601099560E070E080E090E0F20114
:1026400009956CE086E291E0F5010995F60109959E
:10265000F4E4FF1253C028EC30E0309313012093D0
:1026600012013093110120931001C45FDE4FE88105
:10267000F981CC50D14009958E2DC25FDE4FE881A3
:10268000F981CE50D140099580E098E0CB5FDE4FD4
:10269000E881F981C550D140099580E094E0C65F9A
:1026A000DE4FE881F981CA50D140099528EC30E02D
:1026B000C95FDE4F39832883C750D140C75FDE4FE3
:1026C0001882C950D140C150DF4F1882CF5FD0402F
:1026D00034E0C050DF4F3883C050D14080E098E0F4
:1026E000CF5FDE4F99838883C150D14000E018E06E
:1026F0000F2EF8EC2F2E312CF02D32C09AE2F91269
:1027000016C0A1E02A1A31088091100190911101A0
:102710008215930538F41092110110921001212CAA
:10272000312C39C0309211012092100134C0B0E335
:10273000FB1216C0EAE02E1A310880911001909128
:1027400011018215930538F41092110110921001B5
:10275000212C312C3BC0309211012092100136C047
:10276000F7E3FF1218C02FEF221A320A80911001EE
:10277000909111012816390648F43FEF309310016B
:102780003093110122242A94322C4DC03092110131
:102790002092100148C088E3F81218C09AE0290E70
:1027A000311C80911001909111012816390648F4CE
:1027B000AFEFA0931001A093110122242A94322C90
:1027C00068C0309211012092100163C0B3E2FB1285
:1027D0002AC0C95FDE4FE881F981C750D1403197E7
:1027E000C95FDE4FF983E883C750D1408091120161
:1027F000909113018E179F0758F4109213011092B5
:102800001201C95FDE4F19821882C750D14067C0DC
:10281000C95FDE4F28813981C750D1403093130101
:10282000209312015CC039E3F31233C0C95FDE4F5D
:1028300088819981C750D1400196C95FDE4F998345
:102840008883C750D1408091120190911301C95FD4
:10285000DE4FA881B981C750D140A817B90770F4DD
:10286000BFEFB0931201B0931301EFEFFFEFC95F19
:10287000DE4FF983E883C750D14051C0C95FDE4FB6
:1028800028813981C750D140309313012093120120
:1028900046C034E3F31223C0CF5FDE4F88819981B5
:1028A000C150D14001970817190728F083309105CE
:1028B00028F08C0105C003E010E002C003E010E046
:1028C000C801CB5FDE4FE881F981C550D140099541
:1028D000CF5FDE4F19830883C150D14041C0F5E37B
:1028E000FF121DC0CF5FDE4F88819981C150D1405A
:1028F0000A970817190710F08C0102C003E010E0D6
:10290000C801CB5FDE4FE881F981C550D140099500
:10291000CF5FDE4F19830883C150D14042C0F6E338
:10292000FF121EC0CF5FDE4F88819981C150D14018
:10293000845691090817190710F08C0102C003E0B2
:1029400010E0C801CB5FDE4FE881F981C550D1406E
:102950000995CF5FDE4F19830883C150D14041C034
:10296000F2E4FF121EC0CF5FDE4F88819981C15013
:10297000D140885E93400817190710F08C0102C0FF
:1029800003E010E0C801CB5FDE4FE881F981C5505C
:10299000D1400995CF5FDE4F19830883C150D140E4
:1029A00040C0F1E3FF121DC0CF5FDE4F88819981E7
:1029B000C150D14001968017910710F08C0102C0E0
:1029C0000FEF1FEFC801CB5FDE4FE881F981C550E3
:1029D000D1400995CF5FDE4F19830883C150D140A4
:1029E00041C0F2E3FF121DC0CF5FDE4F88819981A5
:1029F000C150D1400A968017910710F08C0102C097
:102A00000FEF1FEFC801CB5FDE4FE881F981C550A2
:102A1000D1400995CF5FDE4F19830883C150D14063
:102A200042C0F3E3FF121EC0CF5FDE4F8881998161
:102A3000C150D1408C599F4F8017910710F08C01E5
:102A400002C00FEF1FEFC801CB5FDE4FE881F981B5
:102A5000C550D1400995CF5FDE4F19830883C1501F
:102A6000D140A5C0F1E4FF121EC0CF5FDE4F8881C8
:102A70009981C150D14088519C4F8017910710F027
:102A80008C0102C00FEF1FEFC801CB5FDE4FE88162
:102A9000F981C550D1400995CF5FDE4F1983088376
:102AA000C150D14084C0F3E4FF1281C0C75FDE4F44
:102AB0002881C950D140223001F130F4222309F499
:102AC00055C0213059F04BC0C75FDE4F3881C95027
:102AD000D140333009F1343089F141C082E0C75F21
:102AE000DE4F8883C950D140A8E0B0E0C150DF4F2D
:102AF000B983A883CF5FD04046C0B3E0C75FDE4F45
:102B0000B883C950D140E0E4F0E0C150DF4FF98311
:102B1000E883CF5FD04037C0F4E0C75FDE4FF88373
:102B2000C950D140C150DF4F1882CF5FD04021E063
:102B3000C050DF4F2883C050D14025C0C75FDE4F53
:102B40001882C950D140C150DF4F1882CF5FD040AA
:102B500034E0C050DF4F3883C050D14014C084E00F
:102B6000C75FDE4F8883C950D1400DC0C75FDE4FBD
:102B7000E882C950D140A1E0B0E0C150DF4FB98335
:102B8000A883CF5FD040C45FDE4FE881F981CC508D
:102B9000D1400995C150DF4F88819981CF5FD040E6
:102BA000C65FDE4FE881F981CA50D1400995B8016E
:102BB00080E090E0CD5FDE4FE881F981C350D140E5
:102BC0000995C150DF4F68817981CF5FD04084E0A3
:102BD00090E0CD5FDE4FE881F981C350D140099587
:102BE000609112017091130188E090E0CD5FDE4F9B
:102BF000E881F981C350D14009956091100170912D
:102C000011018CE090E0CD5FDE4FE881F981C35087
:102C1000D1400995B80180E090E0F3010995C550D5
:102C2000DF4F99838883CB5FD04060E070E082E023
:102C300090E0F201099565E0C550DF4F88819981E8
:102C4000CB5FD040F5010995F60109958E2DF40171
:102C5000099580E391E0C350DF4FE881F981CD5FB2
:102C6000D04009958E2DF4010995C150DF4F288180
:102C70003981CF5FD040B90180E090E0F301099540
:102C800065E0F5010995F6010995609110017091D3
:102C900011017695679580E090E0F3010995C550A4
:102CA000DF4F99838883CB5FD04060E070E083E0A2
:102CB00090E0F201099565E0C550DF4F8881998168
:102CC000CB5FD040F5010995F60109958E2DF401F1
:102CD000099583E391E0C350DF4FE881F981CD5F2F
:102CE000D04009958E2DF4010995609112017091E3
:102CF00013017695679580E090E0F301099565E012
:102D0000F5010995F601099553CC1F920F920FB664
:102D10000F9211242F933F934F935F938F939F9321
:102D200080911F029091200201969093200280933F
:102D30001F0220911F023091200280911201909178
:102D400013018217930708F45C9820911F023091B9
:102D50002002409112015091130180911001909135
:102D60001101840F951F8217930728F45C9A109223
:102D7000200210921F029F918F915F914F913F917E
:102D80002F910F900FBE0F901F9018955058BB2792
:102D9000AA270E94DE160C94DF170E94D11738F084
:102DA0000E94D81720F039F49F3F19F426F40C94B0
:102DB000CE170EF4E095E7FB0C94C817E92F0E949C
:102DC000F01758F3BA17620773078407950720F0C6
:102DD00079F4A6F50C9412180EF4E0950B2EBA2F88
:102DE000A02D0B01B90190010C01CA01A001112411
:102DF000FF27591B99F0593F50F4503E68F11A16BD
:102E0000F040A22F232F342F4427585FF3CF46954D
:102E100037952795A795F0405395C9F77EF41F166F
:102E2000BA0B620B730B840BBAF09150A1F0FF0F39
:102E3000BB1F661F771F881FC2F70EC0BA0F621F25
:102E4000731F841F48F4879577956795B795F79515
:102E50009E3F08F0B0CF9395880F08F09927EE0FAA
:102E60009795879508950E94A41708F481E0089526
:102E70000E94F81788F09F5798F0B92F9927B751FB
:102E8000B0F0E1F0660F771F881F991F1AF0BA950E
:102E9000C9F714C0B13091F00E941218B1E0089542
:102EA0000C941218672F782F8827B85F39F0B93F34
:102EB000CCF3869577956795B395D9F73EF49095C1
:102EC0008095709561957F4F8F4F9F4F0895E8943F
:102ED00009C097FB3EF490958095709561957F4F62
:102EE0008F4F9F4F9923A9F0F92F96E9BB27939510
:102EF000F695879577956795B795F111F8CFFAF420
:102F0000BB0F11F460FF1BC06F5F7F4F8F4F9F4F50
:102F100016C0882311F096E911C0772321F09EE8AE
:102F2000872F762F05C0662371F096E8862F70E014
:102F300060E02AF09A95660F771F881FDAF7880FEE
:102F40009695879597F90895990F0008550FAA0B44
:102F5000E0E8FEEF16161706E807F907C0F01216AC
:102F60001306E407F50798F0621B730B840B950BAF
:102F700039F40A2661F0232B242B252B21F4089504
:102F80000A2609F4A140A6958FEF811D811D0895A1
:102F900097F99F6780E870E060E008959FEF80EC0C
:102FA000089500240A9416161706180609060895AF
:102FB00000240A9412161306140605060895092E15
:102FC0000394000C11F4882352F0BB0F40F4BF2B84
:102FD00011F460FF04C06F5F7F4F8F4F9F4F0895C4
:102FE00057FD9058440F551F59F05F3F71F04795BA
:102FF000880F97FB991F61F09F3F79F0879508959F
:10300000121613061406551FF2CF4695F1DF08C0BD
:10301000161617061806991FF1CF869571056105DA
:1030200008940895E894BB2766277727CB0197F982
:1030300008950E942C180C94DF170E94D11738F0C5
:103040000E94D81720F0952311F00C94C8170C9407
:10305000CE1711240C9413180E94F01770F3959F4B
:10306000C1F3950F50E0551F629FF001729FBB277F
:10307000F00DB11D639FAA27F00DB11DAA1F649F1B
:103080006627B00DA11D661F829F2227B00DA11DCE
:10309000621F739FB00DA11D621F839FA00D611D54
:1030A000221F749F3327A00D611D231F849F600D75
:1030B000211D822F762F6A2F11249F5750409AF09E
:1030C000F1F088234AF0EE0FFF1FBB1F661F771F2A
:1030D000881F91505040A9F79E3F510580F00C94F5
:1030E000C8170C9413185F3FE4F3983ED4F3869509
:1030F00077956795B795F795E7959F5FC1F7FE2B95
:10310000880F911D9695879597F90895FA01EE0F0E
:10311000FF1F309621053105A1F16115710561F49C
:103120008038BFE39B0749F168949038810561F0CE
:103130008038BFEF9B0741F099234AF5FF3FE10537
:103140003105210519F1E8940894E795D901AA23DE
:1031500029F4AB2FBE2FF85FD0F310C0FF5F70F4DF
:10316000A695E0F7F73950F019F0FF3A38F49F7759
:103170009F930DD00F9007FC9058089546F00C9443
:10318000CE1760E070E080E89FE308954FE79F77F7
:103190005F934F933F932F930E9481192F913F91FB
:1031A0004F915F910E9419180C94DE1829F416F0C3
:1031B0000C94C8170C9412180C94CE170E94F81790
:1031C000A8F39638A0F707F80F92E8942BE33AEAB1
:1031D00048EB5FE70E942F180F920F920F924DB7A6
:1031E0005EB70F920E94C919ECEAF0E00E94101934
:1031F0004F915F91EF91FF91E595EE1FFF1F49F011
:10320000FE57E0684427EE0F441FFA95E1F7419519
:10321000550B0E9443190F9007FE0C94371908951F
:10322000DF93CF931F930F93FF92EF92DF927B0177
:103230008C01689406C0DA2EEF010E942C18FE0162
:10324000E894A5912591359145915591A6F3EF010B
:103250000E94DE16FE019701A801DA9469F7DF905B
:10326000EF90FF900F911F91CF91DF9108959B01F7
:10327000AC0160E070E080E89FE30C94FD190C94D1
:10328000C8170C946F1A0E94F817D8F39923C9F342
:10329000940F511DA3F39150504094F059F088239E
:1032A00032F0660F771F881F91505040C1F79E3F44
:1032B00051052CF7880F911D9695879597F90895DC
:1032C0005F3FACF0983E9CF0BB278695779567955D
:1032D000B79508F4B1609395C1F7BB0F58F711F497
:1032E00060FFE8CF6F5F7F4F8F4F9F4FE3CF0C940E
:1032F000131816F00C946F1A0C94CE1768940C9453
:10330000C8170E94F817A8F39923C1F3AEF3DF930F
:10331000CF931F930F93FF92C92FDD2788232AF0A5
:103320002197660F771F881FDAF720E030E040E82A
:103330005FEB9FE3883920F0803E38F021968F774D
:103340000E94C716E4EDF0E004C00E94C716E1E059
:10335000F1E00E9410198B01BE01EC01FB2E6F57AA
:1033600071097595771F880B990B0E94691728E1E1
:1033700032E741E35FE30E942C18AF2D9801AE01C4
:10338000FF900F911F91CF91DF910E94DE160C9458
:10339000DF17FA01DC01AA0FBB1F9B01AC01BF576D
:1033A00028F4222733274427507820C0B75190F4BF
:1033B000AB2F0024469537952795011CA395D2F392
:1033C000002071F0220F331F441FB395DAF30ED0A3
:1033D0000C94C61661307105A0E88A07B94630F42E
:1033E0009B01AC016627772788279078309621F0DB
:1033F000208331834283538308950E94111A0C94D1
:10340000DF170E94D81758F00E94D11740F029F416
:103410005F3F29F00C94C81751110C9413180C94A9
:10342000CE170E94F01768F39923B1F3552391F357
:10343000951B550BBB27AA2762177307840738F023
:103440009F5F5F4F220F331F441FAA1FA9F335D080
:103450000E2E3AF0E0E832D091505040E695001C34
:10346000CAF72BD0FE2F29D0660F771F881FBB1FEE
:10347000261737074807AB07B0E809F0BB0B802DCC
:10348000BF01FF2793585F4F3AF09E3F510578F0F8
:103490000C94C8170C9413185F3FE4F3983ED4F3D0
:1034A000869577956795B795F7959F5FC9F7880FCC
:1034B000911D9695879597F90895E1E0660F771F1E
:1034C000881FBB1F621773078407BA0720F0621BAF
:1034D000730B840BBA0BEE1F88F7E09508959F3F9E
:1034E00031F0915020F4879577956795B795880FBF
:1034F000911D9695879597F90895DB018F939F937A
:103500000E94F71ABF91AF91A29F800D911DA39FBA
:10351000900DB29F900D1124089597FB072E16F47D
:10352000009407D077FD09D00E94021B07FC05D04C
:103530003EF4909581959F4F0895709561957F4FCA
:103540000895A1E21A2EAA1BBB1BFD010DC0AA1FE4
:10355000BB1FEE1FFF1FA217B307E407F50720F0FC
:10356000A21BB30BE40BF50B661F771F881F991F77
:103570001A9469F760957095809590959B01AC01C0
:10358000BD01CF010895052E97FB1EF400940E9403
:10359000DA1A57FD07D00E94A11A07FC03D04EF497
:1035A0000C94DA1A50954095309521953F4F4F4F26
:1035B0005F4F089590958095709561957F4F8F4FDF
:1035C0009F4F0895EE0FFF1F0590F491E02D099491
:1035D000A29FB001B39FC001A39F700D811D112454
:1035E000911DB29F700D811D1124911D08950E949F
:1035F000E81AA59F900DB49F900DA49F800D911D7A
:1036000011240895AA1BBB1B51E107C0AA1FBB1FB1
:10361000A617B70710F0A61BB70B881F991F5A955E
:10362000A9F780959095BC01CD010895FB01DC01BF
:103630008D91019080190110D9F3990B0895FB0128
:10364000DC0101900D920020E1F70895AEE0B0E0BA
:10365000ECE2FBE10C94681E8C01FA0186E08C839D
:103660001A83098377FF02C060E070E8CB010197FD
:103670009E838D83A901BF01CE0101960E94521B3A
:103680004D815E8157FD0AC02F813885421753074F
:103690000CF49A01F801E20FF31F10822E96E4E079
:1036A0000C94841EABE0B0E0E8E5FBE10C945A1EFC
:1036B0006C017B018A01FC0117821682838181FFE4
:1036C000CCC1CE0101963C01F6019381F70193FD37
:1036D000859193FF81917F01882309F4BAC18532D6
:1036E00039F493FD859193FF81917F01853229F40F
:1036F000B60190E00E94491DE7CF912C212C312C7E
:10370000FFE1F315D8F08B3279F038F4803279F09C
:103710008332A1F4232D20611DC08D3261F08033EE
:1037200069F4232D216016C0832D8260382EE32D8D
:10373000E4603E2E2AC0F32DF8601DC037FC2DC07A
:1037400020ED280F2A3040F08E32B9F436FC81C1CA
:10375000232D2064322E19C036FE06C08AE0989EC2
:10376000200D1124922E11C0EAE02E9E200D11246E
:10377000222EF32DF0623F2E08C08C3621F4832DCB
:103780008068382E02C0883641F4F70193FD859198
:1037900093FF81917F018111B3CF982F9F7D955425
:1037A000933028F40C5F1F4F9FE399830DC083363D
:1037B00031F0833771F0833509F059C021C0F80129
:1037C000808189830E5F1F4F88248394912C53013D
:1037D00013C02801F2E04F0E511CF801A080B18007
:1037E00036FE03C0692D70E002C06FEF7FEFC501A8
:1037F0000E943E1D4C018201F32DFF773F2E16C023
:10380000280122E0420E511CF801A080B18036FE52
:1038100003C0692D70E002C06FEF7FEFC5010E9409
:10382000331D4C01F32DF0683F2E820133FC1BC089
:10383000822D90E088169906B0F4B60180E290E0FF
:103840000E94491D2A94F4CFF50137FC859137FE7B
:1038500081915F01B60190E00E94491D21102A94D8
:1038600021E0821A91088114910471F7E8C084362E
:1038700011F0893641F5F80137FE07C0608171818A
:10388000828193810C5F1F4F08C060817181072E78
:10389000000C880B990B0E5F1F4FF32DFF763F2E08
:1038A00097FF09C090958095709561957F4F8F4FD8
:1038B0009F4FF0683F2E2AE030E0A3010E94851D53
:1038C000882E861845C0853731F4232D2F7EB22EE1
:1038D0002AE030E025C0932D997FB92E8F36C1F0B4
:1038E00018F4883579F0B5C0803719F0883721F0A1
:1038F000B0C0E92FE061BE2EB4FE0DC0FB2DF46018
:10390000BF2E09C034FE0AC0292F2660B22E06C081
:1039100028E030E005C020E130E002C020E132E0E4
:10392000F801B7FE07C060817181828193810C5FCD
:103930001F4F06C06081718180E090E00E5F1F4FD5
:10394000A3010E94851D882E8618FB2DFF773F2E30
:1039500036FE0DC0232D2E7FA22E891458F434FE7E
:103960000BC032FC09C0832D8E7EA82E05C0B82C5A
:10397000A32C03C0B82C01C0B92CA4FE0FC0FE01BB
:10398000E80DF11D8081803321F49A2D997EA92EB6
:1039900009C0A2FE06C0B394B39404C08A2D8678F1
:1039A00009F0B394A3FC11C0A0FE06C0B21488F4C1
:1039B000280C922C9B180EC0B21460F4B60180E261
:1039C00090E00E94491DB394F7CFB21418F42B185D
:1039D00002C0982C212CA4FE10C0B60180E390E018
:1039E0000E94491DA2FE17C0A1FC03C088E790E019
:1039F00002C088E590E0B6010CC08A2D867859F0A7
:103A0000A1FE02C08BE201C080E2A7FC8DE2B601FC
:103A100090E00E94491D891438F4B60180E390E0DB
:103A20000E94491D9A94F7CF8A94F301E80DF11D85
:103A30008081B60190E00E94491D8110F5CF2220BF
:103A400009F442CEB60180E290E00E94491D2A941A
:103A5000F6CFF6018681978102C08FEF9FEF2B96FC
:103A6000E2E10C94761EFC0105906150704001105B
:103A7000D8F7809590958E0F9F1F0895FC01615097
:103A8000704001900110D8F7809590958E0F9F1F80
:103A900008950F931F93CF93DF93FB01238121FDA3
:103AA00003C08FEF9FEF2CC022FF16C046815781C5
:103AB000248135814217530744F4A081B1819D01CF
:103AC0002F5F3F4F318320838C93268137812F5F77
:103AD0003F4F3783268314C08B01EC01FB01008428
:103AE000F185E02D0995892BE1F6D80116968D9187
:103AF0009C911797019617969C938E931697CE01DB
:103B0000DF91CF911F910F910895FA01AA272830D4
:103B100051F1203181F1E8946F936E7F6E5F7F4F9A
:103B20008F4F9F4FAF4FB1E03ED0B4E03CD0670F16
:103B3000781F891F9A1FA11D680F791F8A1F911D69
:103B4000A11D6A0F711D811D911DA11D20D009F4B9
:103B500068943F912AE0269F11243019305D3193FB
:103B6000DEF6CF010895462F4770405D4193B3E0E4
:103B70000FD0C9F7F6CF462F4F70405D4A3318F08B
:103B8000495D31FD4052419302D0A9F7EACFB4E03C
:103B9000A6959795879577956795BA95C9F70097F4
:103BA0006105710508959B01AC010A2E0694579595
:103BB000479537952795BA95C9F7620F731F841FEC
:103BC000951FA01D0895DC01CB01FC01F999FECFE2
:103BD00006C0F2BDE1BDF89A319600B40D92415095
:103BE0005040B8F70895F999FECF92BD81BDF89A7B
:103BF000992780B50895A8E1B0E042E050E00C9428
:103C0000E51DDC01A40FB51F4150504048F0CB0129
:103C1000840F951F2E910E94121E41505040D0F7E4
:103C20000895262FF999FECF92BD81BDF89A01978C
:103C300000B4021639F01FBA20BD0FB6F894FA9AF4
:103C4000F99A0FBE08950396272F0E94121E0E9414
:103C5000111E252F0E94121E242F0C94121E019655
:103C6000272F0E94121E0C94111EDC01CB0103C0F1
:103C70002D910E94401E41505040D0F70895262FAC
:103C8000F999FECF1FBA92BD81BD20BD0FB6F89441
:103C9000FA9AF99A0FBE01960895242F0E94401EA9
:103CA000252F0E94401E0C94551E0E943F1E272F58
:103CB0000C94401E2F923F924F925F926F927F9290
:103CC0008F929F92AF92BF92CF92DF92EF92FF922C
:103CD0000F931F93CF93DF93CDB7DEB7CA1BDB0BD8
:103CE0000FB6F894DEBF0FBECDBF09942A8839887D
:103CF00048885F846E847D848C849B84AA84B98484
:103D0000C884DF80EE80FD800C811B81AA81B9818F
:103D1000CE0FD11D0FB6F894DEBF0FBECDBFED01A3
:063D20000895F894FFCFA6
:103D26003132334134353642373839432A30234429
:103D3600401F0A00426F6D206469612021002E0039
:103D46004B65793A200052756E6E696E67202100C8
:083D5600617400616E6400005D
:00000001FF
